{
  "contractName": "Election",
  "abi": [
    {
      "inputs": [],
      "stateMutability": "nonpayable",
      "type": "constructor"
    },
    {
      "anonymous": false,
      "inputs": [
        {
          "indexed": false,
          "internalType": "uint256",
          "name": "id",
          "type": "uint256"
        },
        {
          "indexed": false,
          "internalType": "string",
          "name": "name",
          "type": "string"
        },
        {
          "indexed": false,
          "internalType": "uint256",
          "name": "votecount",
          "type": "uint256"
        }
      ],
      "name": "electionupdated",
      "type": "event"
    },
    {
      "inputs": [
        {
          "internalType": "uint256",
          "name": "",
          "type": "uint256"
        }
      ],
      "name": "candidates",
      "outputs": [
        {
          "internalType": "uint256",
          "name": "id",
          "type": "uint256"
        },
        {
          "internalType": "string",
          "name": "name",
          "type": "string"
        },
        {
          "internalType": "uint256",
          "name": "votecount",
          "type": "uint256"
        }
      ],
      "stateMutability": "view",
      "type": "function",
      "constant": true
    },
    {
      "inputs": [],
      "name": "candidatesCount",
      "outputs": [
        {
          "internalType": "uint256",
          "name": "",
          "type": "uint256"
        }
      ],
      "stateMutability": "view",
      "type": "function",
      "constant": true
    },
    {
      "inputs": [
        {
          "internalType": "address",
          "name": "",
          "type": "address"
        }
      ],
      "name": "votedornot",
      "outputs": [
        {
          "internalType": "bool",
          "name": "",
          "type": "bool"
        }
      ],
      "stateMutability": "view",
      "type": "function",
      "constant": true
    },
    {
      "inputs": [
        {
          "internalType": "uint256",
          "name": "_id",
          "type": "uint256"
        }
      ],
      "name": "Vote",
      "outputs": [],
      "stateMutability": "nonpayable",
      "type": "function"
    }
  ],
  "bytecode": "0x608060405234801561001057600080fd5b506100556040518060400160405280600581526020017f726168756c00000000000000000000000000000000000000000000000000000081525061009e60201b60201c565b6100996040518060400160405280600481526020017f6d6f64690000000000000000000000000000000000000000000000000000000081525061009e60201b60201c565b6101b5565b60008081548092919060010191905055506040518060600160405280600054815260200182815260200160008152506001600080548152602001908152602001600020600082015181600001556020820151816001019080519060200190610107929190610118565b506040820151816002015590505050565b828054600181600116156101000203166002900490600052602060002090601f016020900481019282601f1061015957805160ff1916838001178555610187565b82800160010185558215610187579182015b8281111561018657825182559160200191906001019061016b565b5b5090506101949190610198565b5090565b5b808211156101b1576000816000905550600101610199565b5090565b61058f806101c46000396000f3fe608060405234801561001057600080fd5b506004361061004c5760003560e01c80631bc57022146100515780632d35a8a2146100ab5780633477ee2e146100c9578063dcd6a5cd1461017e575b600080fd5b6100936004803603602081101561006757600080fd5b81019080803573ffffffffffffffffffffffffffffffffffffffff1690602001909291905050506101ac565b60405180821515815260200191505060405180910390f35b6100b36101cc565b6040518082815260200191505060405180910390f35b6100f5600480360360208110156100df57600080fd5b81019080803590602001909291905050506101d2565b6040518084815260200180602001838152602001828103825284818151815260200191508051906020019080838360005b83811015610141578082015181840152602081019050610126565b50505050905090810190601f16801561016e5780820380516001836020036101000a031916815260200191505b5094505050505060405180910390f35b6101aa6004803603602081101561019457600080fd5b8101908080359060200190929190505050610294565b005b60026020528060005260406000206000915054906101000a900460ff1681565b60005481565b6001602052806000526040600020600091509050806000015490806001018054600181600116156101000203166002900480601f0160208091040260200160405190810160405280929190818152602001828054600181600116156101000203166002900480156102845780601f1061025957610100808354040283529160200191610284565b820191906000526020600020905b81548152906001019060200180831161026757829003601f168201915b5050505050908060020154905083565b600260003373ffffffffffffffffffffffffffffffffffffffff1673ffffffffffffffffffffffffffffffffffffffff16815260200190815260200160002060009054906101000a900460ff1615610337576040517f08c379a00000000000000000000000000000000000000000000000000000000081526004018080602001828103825260228152602001806105386022913960400191505060405180910390fd5b6000600160008381526020019081526020016000206000015414156103c4576040517f08c379a00000000000000000000000000000000000000000000000000000000081526004018080602001828103825260138152602001807f74686520696420646f65736e742065786973740000000000000000000000000081525060200191505060405180910390fd5b6001806000838152602001908152602001600020600201600082825401925050819055506000600260003373ffffffffffffffffffffffffffffffffffffffff1673ffffffffffffffffffffffffffffffffffffffff16815260200190815260200160002060006101000a81548160ff0219169083151502179055507f3c841f91385f410e6f12269c9a0c0eb656e360f1e2d6f91144cfd51a10a2a3188160016000848152602001908152602001600020600101600160008581526020019081526020016000206002015460405180848152602001806020018381526020018281038252848181546001816001161561010002031660029004815260200191508054600181600116156101000203166002900480156105245780601f106104f957610100808354040283529160200191610524565b820191906000526020600020905b81548152906001019060200180831161050757829003601f168201915b505094505050505060405180910390a15056fe796f75206861766520766f74656420666f7220746865207061727469636970616e74a26469706673582212209ff6a28d35683922204dd8de897571565f7dc1390466a3faa6ed8b0fa8ddc8ef64736f6c63430007000033",
  "immutableReferences": {},
  "source": "//SPDX-License-Identifier: MIT\r\npragma solidity ^0.7.0;\r\n\r\ncontract Election{\r\n    \r\n    struct Candidate{\r\n        uint id;\r\n        string name;\r\n        uint votecount;\r\n    }\r\n    \r\n    uint public candidatesCount;\r\n    \r\n    mapping(uint => Candidate) public candidates;\r\n    \r\n    mapping(address => bool) public votedornot;\r\n    \r\n    event electionupdated(uint id,\r\n          string name,\r\n          uint votecount);\r\n    \r\n    constructor(){\r\n        addCandidate(\"rahul\");\r\n        addCandidate(\"modi\");\r\n        \r\n    }\r\n    \r\n    function addCandidate(string memory name) private{\r\n        candidatesCount++;\r\n        candidates[candidatesCount] = Candidate(candidatesCount,name,0);\r\n    }\r\n    \r\n    function Vote(uint _id) public{\r\n        require(!votedornot[msg.sender],'you have voted for the participant');\r\n        \r\n        require(candidates[_id].id != 0,'the id doesnt exist');\r\n        candidates[_id].votecount+=1;\r\n        votedornot[msg.sender] = false;\r\n        emit electionupdated(_id,candidates[_id].name,candidates[_id].votecount);\r\n    }\r\n}",
  "sourcePath": "C:/Users/saket/Desktop/Project/contracts/Election.sol",
  "compiler": {
    "name": "solc",
    "version": "0.7.0+commit.9e61f92b.Emscripten.clang"
  },
  "schemaVersion": "3.4.1",
  "updatedAt": "2021-07-02T17:33:13.370Z",
  "networkType": "ethereum",
  "devdoc": {
    "kind": "dev",
    "methods": {},
    "version": 1
  },
  "userdoc": {
    "kind": "user",
    "methods": {},
    "version": 1
  }
}